:100000000C9463000C948B000C948B000C948B006C
:100010000C948B000C948B000C948B000C948B0034
:100020000C948B000C948B000C948B000C94120994
:100030000C948B000C948B000C948B000C948B0014
:100040000C9470080C948B000C94E0080C94BA0883
:100050000C948B000C948B000C948B000C948B00F4
:100060000C9451070C948B00000000002400270022
:100070002A0000000000250028002B0000000000DE
:1000800023002600290004040404040404040202DA
:100090000202020203030303030301020408102007
:1000A0004080010204081020010204081020000012
:1000B0000008000201000003040700000000000027
:1000C0000000130A460E11241FBECFEFD8E0DEBF9A
:1000D000CDBF11E0A0E0B1E0E8E5F4E202C0059098
:1000E0000D92AA3FB107D9F723E0AAEFB1E001C012
:1000F0001D92AF3AB207E1F710E0C2E6D0E004C0CB
:100100002197FE010E941910C136D107C9F70E943C
:10011000E60A0C941F120C94000020917802260F1E
:100120003327331F21323105ECF420919E02FC016C
:1001300090E080E0243069F082E00895A091780298
:100140002191AC014A5A5D4FA40FB52FB11D2C93DC
:100150000196861798F380917802680F6093780271
:1001600080E0089581E00895089508950895E0914C
:100170004D0280914C02E81730F4F0E0E45DFD4F51
:10018000808190E008958FEF9FEF089590914D0248
:1001900080914C022FEF3FEF981748F4E92FF0E0E1
:1001A000E45DFD4F208130E09F5F90934D02C901D7
:1001B000089580914C0290914D02891B990B0895EE
:1001C000CF92DF92EF92FF920F931F93CF93DF9323
:1001D0007C01CB018A0120912B02222389F0EB01C3
:1001E0006B01C40ED51ECC15DD0569F06991D701F0
:1001F000ED91FC910190F081E02DC7010995F3CFBD
:10020000642F0E948D00C801DF91CF911F910F9143
:10021000FF90EF90DF90CF900895CF93DF931F92E0
:10022000CDB7DEB7698320912B022223F9F020910C
:100230004E02203258F021E030E0FC01338322836B
:1002400090E080E00F90DF91CF91089580914F0270
:10025000E82FF0E0E55FFD4F998190838F5F8093F9
:100260004F0280934E0281E090E0ECCF61E0CE013E
:1002700001960E948D00F7CF833081F028F4813001
:1002800099F08230A9F008958730A9F08830C9F03C
:100290008430B1F4809180008F7D03C08091800014
:1002A0008F7780938000089584B58F7784BD0895FB
:1002B00084B58F7DFBCF8091B0008F778093B000A5
:1002C00008958091B0008F7DF9CFCF93DF93282FD1
:1002D00030E0F901E255FF4F8491F901E656FF4FF6
:1002E000D491F901EA57FF4FC491CC23A1F08111B9
:1002F0000E943C01EC2FF0E0EE0FFF1FE458FF4F8F
:10030000A591B491EC91ED2381E090E009F480E0B7
:10031000DF91CF91089580E090E0FACF1F93CF93C3
:10032000DF93282F30E0F901E255FF4F8491F90166
:10033000E656FF4FD491F901EA57FF4FC491CC2301
:10034000A9F0162F81110E943C01EC2FF0E0EE0F76
:10035000FF1FEE58FF4FA591B4918FB7F894EC9121
:10036000111108C0D095DE23DC938FBFDF91CF91B0
:100370001F910895DE2BF8CF10929E0281E08093AA
:10038000A00210929F0261E082E10E948E0161E072
:1003900083E10E948E01E9EBF0E080818E7F808313
:1003A00080818D7F808388E48093B80085E480938A
:1003B000BC000895CF93DF9391E09093550288237A
:1003C000B9F0C091B800D091BA008091BC008A7B8E
:1003D0008093BC0060E082E10E948E0160E083E1D6
:1003E0000E948E010E94BC01D093BA00C093B80055
:1003F000DF91CF910895CF93DF9390E0FC01E65613
:10040000FF4F24918A579F4FFC0184918823D1F09C
:1004100090E0880F991FFC01E859FF4FA591B49116
:10042000FC01EE58FF4FC591D49161110EC09FB7EA
:10043000F8948C91E22FE0958E238C932881E2230F
:10044000E8839FBFDF91CF9108958FB7F894EC9127
:10045000E22BEC938FBFF6CF3FB7F8948091070261
:1004600090910802A0910902B0910A0226B5A89BBA
:1004700005C02F3F19F00196A11DB11D3FBFBA2F36
:10048000A92F982F8827BC01CD01620F711D811DF6
:10049000911D42E0660F771F881F991F4A95D1F77B
:1004A00008958F929F92AF92BF92CF92DF92EF9278
:1004B000FF924B015C010E942C026B017C010E94A7
:1004C0002C026C197D098E099F09683E73408105D5
:1004D0009105A8F321E0821A9108A108B10888EEDD
:1004E000C80E83E0D81EE11CF11C81149104A10404
:1004F000B10429F7FF90EF90DF90CF90BF90AF90BD
:100500009F908F900895AF92BF92CF92DF92EF921B
:10051000FF920F931F93CF93DF936C017B018B01AD
:10052000040F151FEB015E01AE18BF08C017D107FD
:1005300059F06991D601ED91FC910190F081E02D87
:10054000C6010995892B79F7C501DF91CF911F91DC
:100550000F91FF90EF90DF90CF90BF90AF900895F4
:10056000FC01538D448D252F30E0842F90E0821BB9
:10057000930B541710F0CF96089501970895FC013E
:10058000918D828D981761F0A28DAE0FBF2FB11D96
:100590005D968C91928D9F5F9F73928F90E00895EE
:1005A0008FEF9FEF0895FC01918D828D981731F0A8
:1005B000828DE80FF11D858D90E008958FEF9FEFFC
:1005C0000895FC01918D228D892F90E0805C9F4FD2
:1005D000821B91098F739927089580ED92E00E9404
:1005E000E10221E0892B09F420E0822F089580E0C8
:1005F00090E0892B29F00E94ED0281110C940000FB
:100600000895FC01A48DA80FB92FB11DA35ABF4FA7
:100610002C91848D90E001968F739927848FA68901
:10062000B7892C93A089B1898C91837080648C9355
:10063000938D848D981306C00288F389E02D808104
:100640008F7D80830895EF92FF920F931F93CF9336
:10065000DF93EC0181E0888F9B8D8C8D98131AC0FD
:10066000E889F989808185FF15C09FB7F894EE89E4
:10067000FF896083E889F989808183708064808341
:100680009FBF81E090E0DF91CF911F910F91FF908C
:10069000EF900895F62E0B8D10E00F5F1F4F0F7334
:1006A0001127E02E8C8D8E110CC00FB607FCFACFEF
:1006B000E889F989808185FFF5CFCE010E94010389
:1006C000F1CFEB8DEC0FFD2FF11DE35AFF4FF082C0
:1006D0009FB7F8940B8FEA89FB8980818062CFCF26
:1006E000CF93DF93EC01888D8823B9F0AA89BB8969
:1006F000E889F9898C9185FD03C0808186FD0DC054
:100700000FB607FCF7CF8C9185FFF2CF808185FF74
:10071000EDCFCE010E940103E9CFDF91CF91089583
:10072000CF92DF92EF92FF920F931F93CF93DF93BD
:10073000FC01C48121E020932B02C093FB011092A5
:100740004F0210924E028485682B84EC92E00E9446
:100750000D01D0914E02D13208F092C00E942C02BD
:100760006B017C0180919E02811165C082E08093C3
:100770009E0281E08093A0028FEF80939D021092F1
:10078000C202D093C102ABE0B2E0E1EAF2E080E065
:10079000D81385C01092C3028091C302CC0FC82B1E
:1007A000C093C30280919F02813009F07CC01092F7
:1007B0009F020E942C026B017C018091C3028093F6
:1007C000BB008091510290915202A0915302B091CE
:1007D0005402892B8A2B8B2B99F00E942C020091BA
:1007E00051021091520220915302309154026C191F
:1007F0007D098E099F090617170728073907E0F1B9
:100800008091BC0083FDD9CF85EC8093BC000E9411
:100810002C026B017C0180919E02823009F445C05C
:1008200080919D028F3F61F180919D02803241F164
:1008300080919D0225C08091510290915202A09119
:100840005302B0915402892B8A2B8B2B09F48ACF47
:100850000E942C02009151021091520220915302E9
:10086000309154026C197D098E099F0906171707EC
:100870002807390708F076CF809150020E94DA01EC
:1008800010924F0210924E0210922B02DF91CF91E4
:100890001F910F91FF90EF90DF90CF9008959D9161
:1008A00091938F5F75CF85EEB0CF8091510290917B
:1008B0005202A0915302B0915402892B8A2B8B2BA8
:1008C00009F4A9CF0E942C0200915102109152020A
:1008D00020915302309154026C197D098E099F09B1
:1008E000061717072807390708F095CFC5CF0895D1
:1008F00090E080E008958F929F92AF92BF92FF9216
:100900000F931F93CF93DF93FC01F0808BE08F1543
:1009100008F44AC0828108E512E0081B110987FD2E
:100920001395000F111F000F111F8181C8E8D0E03F
:10093000C81BD10987FDD395CC0FDD1FCC0FDD1F60
:100940004E010D2E000CAA08BB089801012E000CC8
:10095000440B550B281939094A095B09DB010E9430
:100960009D0F24EB30E040E050E00E94730F820EB8
:10097000931EA41EB51E8C169D062CF0E801801651
:1009800091060CF4E4012297CC0FDD1F2FB7F894E9
:100990008F2D90E0FC01EE0FFF1FE80FF91FE359C8
:1009A000FC4FD283C1832FBFDF91CF911F910F9155
:1009B000FF90BF90AF909F908F9008951F93CF931B
:1009C000DF93EC01162F88818C3008F04EC061E077
:1009D000812F0E94FB018881282F30E0F901EE0F62
:1009E000FF1FE20FF31FE359FC4F1F736081607C10
:1009F000612B608319821A822CE0622F0E940D10F5
:100A0000829FB001112430E020E0AB01420F531F60
:100A1000FA01EE0FFF1FE40FF51FE359FC4F908121
:100A200096FD16C02F5F3F4F2C30310571F78111B5
:100A30000FC01092800082E08093810010928500A8
:100A400010928400B19A80916F00826080936F0051
:100A5000E8818E2F90E0FC01EE0FFF1FE80FF91FD9
:100A6000E359FC4F8081806480838881DF91CF913E
:100A70001F91089560E088E00E948E0160E089E0A7
:100A80000C948E0161E088E00E948E0160E089E0B4
:100A90000C948E010F931F93CF938C01C62F0E944D
:100AA00090036C2F6460C8010E9490036C2F6B7FD1
:100AB000C8010E94900383EC90E00197F1F7CF9179
:100AC0001F910F9108950F931F93CF93DF938C0184
:100AD000D62FC42F607F642B0E944A0580E1D89FE7
:100AE000B00111246C2BC801DF91CF911F910F91A0
:100AF0000C944A05CF93DF93CDB7DEB728970FB696
:100B0000F894DEBF0FBECDBF98E0E6E0F1E0DE0175
:100B1000119601900D929A95E1F79091A60398177E
:100B200008F48FEF90E0880F991F21E030E02C0F40
:100B30003D1F820F931FFC016081606840E08EE9D9
:100B400093E028960FB6F894DEBF0FBECDBFDF91BD
:100B5000CF910C94630540E061E08EE993E00E9440
:100B600063058BE39FE10197F1F78091A703882349
:100B700019F080E00C947A05089541E00E94630525
:100B800081E090E00895FB0101900020E9F73197A2
:100B9000AF01461B570BDC01ED91FC910280F38104
:100BA000E02D09944F925F926F927F928F929F9265
:100BB000AF92BF92CF92DF92EF92FF920F931F936B
:100BC000CF93DF93CDB7DEB7A1970FB6F894DEBF12
:100BD0000FBECDBF8C016B01770FEE08FF08F7FE4B
:100BE00049C0DC01ED91FC910190F081E02D6DE2B6
:100BF00009955C0122273327A9012C193D094E09CB
:100C00005F0919A2FE01B1967F019AE0492E512C8D
:100C1000612C712CCA01B901A30192010E94DC0F61
:100C2000605DD7016E937D012115310541055105A8
:100C300089F790E080E0109721F0BD01C8010E9483
:100C4000C3058A0D9B1DA1960FB6F894DEBF0FBE9B
:100C5000CDBFDF91CF911F910F91FF90EF90DF906B
:100C6000CF90BF90AF909F908F907F906F905F904C
:100C70004F900895A701960119A2FE01B1967F0138
:100C80008AE0882E912CA12CB12CCA01B901A501B2
:100C900094010E94DC0F605DD7016E937D012115E8
:100CA00031054105510589F790E080E0109759F230
:100CB000BD01C8010E94C305C6CFCF93DF93BC011D
:100CC00080ED92E00E94C305EC016EE371E080EDDF
:100CD00092E00E94C3058C0F9D1FDF91CF91089574
:100CE0000C94C305CF93DF93EC0180919203909114
:100CF0009303009759F020919403309195032C179A
:100D00003D0720F081E0DF91CF910895BE016F5F34
:100D10007F4F0E944911009789F09093930380932D
:100D20009203D0939503C09394032091960330913E
:100D30009703232B39F7FC011082E4CF80E0E3CF47
:100D40000F931F93CF93DF938C01EC010990002048
:100D5000E9F72197C81BD90BCE010E94720620919A
:100D6000920330919303811117C02115310519F0B9
:100D7000C9010E94C0101092930310929203109226
:100D80009703109296031092950310929403DF91AB
:100D9000CF911F910F910895D0939703C09396031D
:100DA000B801C901DF91CF911F910F910C941812D6
:100DB00085ED8093BC008091510290915202A091E8
:100DC0005302B09154020796A11DB11D23E0B695C0
:100DD000A795979587952A95D1F72091BC0024FD7A
:100DE00003C010929E020895409151025091520208
:100DF0006091530270915402452B462B472B69F3A7
:100E00000097A105B10541F02AE22A95F1F700C04B
:100E10000197A109B109E1CF809150020C94DA0148
:100E20000F931F93873409F436C0823521F0823442
:100E300051F460E031C060E08FE00E948E0160E01C
:100E400080E10E948E0164E670E080E090E00E9404
:100E50005102E8EAF0E06491E4E9F0E0E491F0E0C6
:100E6000EE0FFF1FE458FF4F8591949100E412E4C8
:100E70002FE030E040E00E94CE0961157105810548
:100E8000910529F06F5F7F4F8F4F9F4F9F70CB0170
:100E90001F910F91089561E08FE00E948E0161E043
:100EA000CFCF1F920F920FB60F9211242F933F9323
:100EB0004F935F936F937F938F939F93AF93BF9362
:100EC000EF93FF938091B900887F803609F44AC080
:100ED000F0F5883209F4A7C018F5803109F49BC0F9
:100EE000B8F4882309F4F9C0883009F494C0FF915C
:100EF000EF91BF91AF919F918F917F916F915F9192
:100F00004F913F912F910F900FBE0F901F9018950A
:100F1000883109F488C0803251F780939D0214C053
:100F2000803409F49DC040F48033B9F38833F9F676
:100F300080939D0285ECB0C0803509F485C088356A
:100F400009F496C0883499F60E94D806D0CF883923
:100F500009F48CC038F5883729F050F4883611F040
:100F6000803729F683E080939E0210929C0257C03E
:100F7000883809F47BC0803919F0803809F0B7CF80
:100F800080919C02803208F071C0E0919C0281E067
:100F90008E0F80939C028091BB00F0E0E458FD4FDF
:100FA00080833DC0803B39F0E0F4803A09F479C099
:100FB000883A09F09CCF84E080939E0210927902D7
:100FC00010927802E0917602F09177020995809173
:100FD000780281110FC081E080937802109256024E
:100FE00009C0803C09F4A6CF883C09F4A3CF883B14
:100FF00009F07DCFE091790281E08E0F8093790234
:10100000F0E0EA5AFD4F80818093BB009091790215
:101010008091780229C08091C3028093BB0085EC47
:101020008093BC0064CF9091C2028091C102981756
:1010300058F5E091C20281E08E0F8093C202F0E089
:10104000EF55FD4F8081E9CFE091C20281E08E0F24
:101050008093C2028091BB00F0E0EF55FD4F80838A
:101060009091C2028091C1029817C8F285E8D8CF4A
:10107000E091C20281E08E0F8093C2028091BB009A
:10108000F0E0EF55FD4F80838091A00281115CCF8D
:1010900081E080939F0284EA8093BC0010929E02BC
:1010A00026CF85EC8093BC0010929E0280919C021A
:1010B000803230F4E0919C02F0E0E458FD4F108261
:1010C00060919C0270E0E0917A02F0917B028CE7E3
:1010D00092E0099510929C020ACF10929D0234CFA3
:1010E0001F920F920FB60F9211242F933F938F935D
:1010F0009F93AF93BF938091030290910402A091BC
:101100000502B09106023091020223E0230F2D3731
:1011100058F50196A11DB11D209302028093030290
:1011200090930402A0930502B093060280910702F7
:1011300090910802A0910902B0910A020196A11DA6
:10114000B11D8093070290930802A0930902B09307
:101150000A02BF91AF919F918F913F912F910F9074
:101160000FBE0F901F90189526E8230F0296A11D21
:10117000B11DD2CF1F920F920FB60F9211242F9351
:101180003F934F935F936F937F938F939F93AF930F
:10119000BF93EF93FF9380ED92E00E940103FF91D4
:1011A000EF91BF91AF919F918F917F916F915F91DF
:1011B0004F913F912F910F900FBE0F901F90189558
:1011C0001F920F920FB60F9211242F938F939F931C
:1011D000EF93FF93E091E002F091E1028081E091D2
:1011E000E602F091E70282FD1BC090818091E90246
:1011F0008F5F8F732091EA02821741F0E091E9023C
:10120000F0E0E053FD4F958F8093E902FF91EF915D
:101210009F918F912F910F900FBE0F901F90189557
:101220008081F4CF1F920F920FB60F9211242F934B
:101230003F934F935F936F937F938F939F93AF935E
:10124000BF93CF93DF93EF93FF938091FA01C09107
:101250009103D0E087FF24C0109285001092840093
:101260008091FA018F5F8093FA018091FA01082E34
:10127000000C990B8C179D0724F48091FA018C3097
:10128000C4F18091840090918500049680349C493B
:1012900008F47AC08091840090918500049676C00D
:1012A0008091FA01082E000C990B8C179D07C4F64B
:1012B000E091FA018E2FEE0F990BFC01EE0FFF1F4C
:1012C000E80FF91FE359FC4F808186FFC9CFE091F9
:1012D000FA018E2FEE0F990BFC01EE0FFF1FE80FA6
:1012E000F91FE359FC4F808160E08F730E948E01EB
:1012F000B7CF2091840030918500E091FA018E2FC4
:10130000EE0F990BFC01EE0FFF1FE80FF91FE359D9
:10131000FC4F81819281820F931F9093890080936B
:101320008800E091FA018E2FEE0F990BFC01EE0F71
:10133000FF1FE80FF91FE359FC4F808186FF11C0A2
:10134000E091FA018E2FEE0F990BFC01EE0FFF1FBB
:10135000E80FF91FE359FC4F808161E08F730E9411
:101360008E01FF91EF91DF91CF91BF91AF919F914E
:101370008F917F916F915F914F913F912F910F903E
:101380000FBE0F901F90189580E49CE99093890000
:10139000809388008FEF8093FA01E3CFCF92DF92A2
:1013A000EF92FF920F931F93E82FF92F05C0015082
:1013B00011092109310961F1908196239417B9F33C
:1013C00005C0015011092109310911F190819623BD
:1013D0009413F7CFC12CD12CE12CF12C0AC08FEF44
:1013E000C81AD80AE80AF80A0C151D052E053F058B
:1013F00079F080818623841791F36C2D7D2D8E2DBD
:101400009F2D1F910F91FF90EF90DF90CF90089547
:1014100060E070E080E090E01F910F91FF90EF900E
:10142000DF90CF9008951092C7021092C60288EE06
:1014300093E0A0E0B0E08093C8029093C902A0932B
:10144000CA02B093CB0222E131E03093C50220936F
:10145000C4021092D3021092D2028093D4029093CD
:10146000D502A093D602B093D70284E291E0909384
:10147000D1028093D00285EC90E09093DD028093BE
:10148000DC0284EC90E09093DF028093DE0280EC3B
:1014900090E09093E1028093E00281EC90E09093E1
:1014A000E3028093E20282EC90E09093E502809365
:1014B000E40286EC90E09093E7028093E6021092BB
:1014C000E9021092EA021092EB021092EC021092E2
:1014D000A1031092A00386E391E090939F03809371
:1014E0009E031092A70387E28093A20380E180937A
:1014F000A80382E08093A9031092AA03809191032C
:101500008C3008F052C091E0980F90939103809333
:101510009B0390E0FC01EE0FFF1FE80FF91FE3595A
:10152000FC4F88EB9BE092838183809191038C3008
:1015300008F03FC091E0980F909391038093980337
:1015400090E0FC01EE0FFF1FE80FF91FE359FC4F7D
:1015500088EB9BE092838183109293031092920315
:101560001092950310929403109297031092960391
:1015700090E080E00E9472062091920330919303E4
:1015800081111BC02115310519F0C9010E94C0103D
:101590001092930310929203109297031092960365
:1015A000109295031092940308958FEF80939B03FC
:1015B000BCCF8FEF80939803CFCF109297031092F8
:1015C000960360E471E0C9010C941812789484B514
:1015D000826084BD84B5816084BD85B5826085BD2F
:1015E00085B5816085BD80916E00816080936E00BD
:1015F00010928100809181008260809381008091AF
:10160000810081608093810080918000816080935F
:1016100080008091B10084608093B1008091B0001F
:1016200081608093B00080917A00846080937A001A
:1016300080917A00826080937A0080917A00816044
:1016400080937A0080917A00806880937A0010926B
:10165000C10010924D0210924C0210924F02109253
:101660004E020E94BC0184EB90E09093770280933D
:10167000760285EB90E090937B0280937A02109241
:10168000A3038091A903823018F098E09093A303FC
:101690008093A60362E370E080E090E00E94510234
:1016A0006091AA038EE993E00E94900368EE73E0D4
:1016B00080E090E00E94510260E38EE993E00E9496
:1016C0004A05CBE4D6E4CE010197F1F760E38EE959
:1016D00093E00E944A052197F1F760E38EE993E0D9
:1016E0000E944A0583E592E00197F1F760E28EE9F6
:1016F00093E00E944A056091A303606240E08EE996
:1017000093E00E94630584E08093A40340E06CE0D2
:101710008EE993E00E9463050E94AB05C2E0C0938E
:10172000A50340E066E08EE993E00E94630540E097
:1017300062E08EE993E00E9463058BE39FE10197ED
:10174000F1F788E08093AA0360E08EE993E00E94BD
:10175000900380E00E947A0561E471E08EE993E0F5
:101760000E94700668EE73E080E090E00E945102F3
:101770000E94AB0561E087E00E94FB0161E086E02A
:101780000E94FB0161E08FE00E94FB0161E080E1CB
:101790000E94FB0160E08EE00E94FB0160E082E0BD
:1017A0000E94FB0160E083E00E94FB0161E088E0B1
:1017B0000E94FB0161E089E00E94FB0164E070E0AF
:1017C0008BE993E00E94DE0465E070E088E993E035
:1017D0000E94DE046AE570E08BE993E00E947B04DE
:1017E0006AE570E088E993E00E947B0461E087E0AD
:1017F0000E948E0160E086E00E948E01E091E0028E
:10180000F091E102C083E091DC02F091DD021082F0
:10181000E091DE02F091DF028FEC80831092E8020B
:10182000E091E402F091E50286E08083E091E2023B
:10183000F091E302808180618083E091E202F09187
:10184000E302808188608083E091E202F091E3020C
:10185000808180688083E091E202F091E3028081E0
:101860008F7D808380E0282E80E0382E82E50E94E4
:1018700010078C0187E40E941007EC0182E40E94AB
:1018800010075C016EE471E080ED92E00E9470064A
:10189000B80180ED92E00E94D20561E571E080ED33
:1018A00092E00E947006BE0180ED92E00E94D20597
:1018B00065E571E080ED92E00E947006B50180ED73
:1018C00092E00E94D2056EE371E080ED92E00E940A
:1018D000C3056E01AC16BD060CF465010C151D05A3
:1018E00024F0C016D10609F02CC1B801012E000C5D
:1018F000880B990B0E94560E2B013C01BE010D2E48
:10190000000C880B990B0E94560E2DEC3CEC4CE41D
:101910005FE30E94B50E9B01AC01C301B2010E94BE
:101920004F0E87FF0DC1B5010B2C000C880B990BD6
:101930000E94560E2DEC3CEC4CE45FE30E94B50E89
:101940009B01AC01C301B2010E944F0E87FFF8C09A
:1019500089E591E00E94A0068DE591E00E945D0678
:101960000E94AB0580E00E947A056BE671E08EE98B
:1019700093E00E9470060E94420582E00E94650189
:10198000892BC9F58091960390919703892B99F142
:1019900069E571E080919203909193030E940F1288
:1019A000892B49F50E943A0570E060E08BE993E0ED
:1019B0000E947B0464EF71E080E090E00E9451029D
:1019C0006AE570E08BE993E00E947B04809100025D
:1019D000909101020196909301028093000280E4AD
:1019E00091E00E94A0066CE271E080E090E00E942D
:1019F00051020E94420583E00E946501892BC9F5CE
:101A00008091960390919703892B99F164EA71E094
:101A100080919203909193030E940F12892B49F5B4
:101A20000E943A0570E060E088E993E00E947B0440
:101A300064EF71E080E090E00E9451026AE570E09E
:101A400088E993E00E947B048091FE019091FF0160
:101A500001969093FF018093FE0180E491E00E9443
:101A6000A0066CE271E080E090E00E9451020E94CA
:101A700042058091960390919703892B11F16AE7B3
:101A800071E080919203909193030E940F12892B31
:101A9000C1F483E00E946501892B99F48091FC01D7
:101AA0009091FD0101969093FD018093FC0180E4EB
:101AB00091E00E94A0066CE271E080E090E00E945C
:101AC000510281E00E947A056EE471E08EE993E0B4
:101AD0000E94700660910002709101028EE993E00D
:101AE0000E94D20564EF71E08EE993E00E947006D7
:101AF0006091FC017091FD018EE993E00E94D20596
:101B000065E571E08EE993E00E9470066091FE0148
:101B10007091FF018EE993E00E94D20564E670E0C7
:101B200080E090E00E9451022114310409F49ECE1D
:101B30000E94ED02882309F499CE0E94000096CEFF
:101B40006801CC16DD0609F045C0BE010D2E000C63
:101B5000880B990B0E94560E2B013C01B801012EF7
:101B6000000C880B990B0E94560E2DEC3CEC4CE4BB
:101B70005FE30E94B50E9B01AC01C301B2010E945C
:101B80004F0E87FF27C065010B2C000CEE08FF08E5
:101B9000C701B6010E94560E2DEC3CEC4CE45FE30D
:101BA0000E94B50E9B01AC01C301B2010E944F0E11
:101BB00087FF59C08AE791E00E94A00680E891E083
:101BC0000E945D060E94AB0580E00E947A0563E9F1
:101BD00071E0CDCECA14DB0409F048C0B601DD0CBB
:101BE000880B990B0E94560E4B015C01B801110F36
:101BF000880B990B0E94560E2DEC3CEC4CE45FE3F5
:101C00000E94B50E9B01AC01C501B4010E944F0EAC
:101C100087FF2CC0BE01DD0F880B990B0E94560E6A
:101C20002DEC3CEC4CE45FE30E94B50EA501940161
:101C30000E941F101816D4F484EA91E00E94A006B6
:101C400089EA91E00E945D060E94AB0580E00E9457
:101C50007A056FEB71E08BCEC701B6010E94560E7C
:101C60004B015C01D7CFCA15DB05B1F38FEC91E0D6
:101C70000E94A00687ED91E00E945D060E94AB05E0
:101C800080E00E947A0566EE71E071CE8091920349
:101C900090919303009711F00C94C01008950E9446
:101CA000910E08F481E00895E89409C097FB3EF492
:101CB00090958095709561957F4F8F4F9F4F992399
:101CC000A9F0F92F96E9BB279395F6958795779517
:101CD0006795B795F111F8CFFAF4BB0F11F460FFD7
:101CE0001BC06F5F7F4F8F4F9F4F16C0882311F02F
:101CF00096E911C0772321F09EE8872F762F05C043
:101D0000662371F096E8862F70E060E02AF09A95DD
:101D1000660F771F881FDAF7880F9695879597F9D2
:101D20000895990F0008550FAA0BE0E8FEEF16166C
:101D30001706E807F907C0F012161306E407F507BF
:101D400098F0621B730B840B950B39F40A2661F033
:101D5000232B242B252B21F408950A2609F4A140D6
:101D6000A6958FEF811D811D08950E94C80E0C94C9
:101D7000390F0E942B0F38F00E94320F20F095236C
:101D800011F00C94220F0C94280F11240C946D0F59
:101D90000E944A0F70F3959FC1F3950F50E0551FB5
:101DA000629FF001729FBB27F00DB11D639FAA27B0
:101DB000F00DB11DAA1F649F6627B00DA11D661FFF
:101DC000829F2227B00DA11D621F739FB00DA11D20
:101DD000621F839FA00D611D221F749F3327A00DDA
:101DE000611D231F849F600D211D822F762F6A2F76
:101DF00011249F5750409AF0F1F088234AF0EE0FDB
:101E0000FF1FBB1F661F771F881F91505040A9F707
:101E10009E3F510580F00C94220F0C946D0F5F3F94
:101E2000E4F3983ED4F3869577956795B795F79543
:101E3000E7959F5FC1F7FE2B880F911D96958795BB
:101E400097F9089597F99F6780E870E060E008953A
:101E50009FEF80EC089500240A94161617061806C2
:101E60000906089500240A9412161306140605069E
:101E70000895092E0394000C11F4882352F0BB0F2F
:101E800040F4BF2B11F460FF04C06F5F7F4F8F4F92
:101E90009F4F089557FD9058440F551F59F05F3FCD
:101EA00071F04795880F97FB991F61F09F3F79F07C
:101EB00087950895121613061406551FF2CF4695FE
:101EC000F1DF08C0161617061806991FF1CF869580
:101ED0007105610508940895E894BB276627772764
:101EE000CB0197F90895052E97FB1EF400940E94EC
:101EF0008A0F57FD07D00E94DC0F07FC03D04EF479
:101F00000C948A0F50954095309521953F4F4F4F37
:101F10005F4F089590958095709561957F4F8F4F95
:101F20009F4F08950E94FE0FA59F900DB49F900DA6
:101F3000A49F800D911D11240895B7FF0C94920F5A
:101F40000E94920F821B930B08952F923F924F9203
:101F50005F926F927F928F929F92AF92BF92CF9239
:101F6000DF92EF92FF920F931F93CF93DF93CDB742
:101F7000DEB7CA1BDB0B0FB6F894DEBF0FBECDBFBA
:101F800009942A88398848885F846E847D848C848B
:101F90009B84AA84B984C884DF80EE80FD800C8194
:101FA0001B81AA81B981CE0FD11D0FB6F894DEBF77
:101FB0000FBECDBFED010895A1E21A2EAA1BBB1BD7
:101FC000FD010DC0AA1FBB1FEE1FFF1FA217B30705
:101FD000E407F50720F0A21BB30BE40BF50B661F1B
:101FE000771F881F991F1A9469F7609570958095DF
:101FF00090959B01AC01BD01CF010895A29FB00156
:10200000B39FC001A39F700D811D1124911DB29F2C
:10201000700D811D1124911D0895991B79E004C054
:10202000991F961708F0961B881F7A95C9F7809517
:102030000895EE0FFF1F0590F491E02D09940E9482
:10204000910E08F48FEF08950F931F93CF93DF93B2
:102050008230910510F482E090E0E091AD03F091C0
:10206000AE0330E020E0B0E0A0E0309799F4211515
:10207000310509F44AC0281B390B24303105D8F545
:102080008A819B816115710589F1FB0193838283AC
:10209000FE0111C040815181028113814817590707
:1020A000E0F04817590799F4109761F012960C93D5
:1020B000129713961C933296CF01DF91CF911F9107
:1020C0000F9108950093AD031093AE03F4CF211543
:1020D000310551F04217530738F0A901DB019A018D
:1020E000BD01DF01F801C1CFEF01F9CF9093AE033D
:1020F0008093AD03CDCFFE01E20FF31F8193919347
:102100002250310939832883D7CF2091AB033091F6
:10211000AC03232B41F42091020130910301309351
:10212000AC032093AB0320910001309101012115F4
:10213000310541F42DB73EB740910401509105019E
:10214000241B350BE091AB03F091AC03E217F307CE
:10215000A0F42E1B3F0B2817390778F0AC014E5F17
:102160005F4F2417350748F04E0F5F1F5093AC03A5
:102170004093AB03819391939FCFF0E0E0E09CCF3D
:10218000CF93DF930097E9F0FC013297138212821C
:10219000A091AD03B091AE03ED0130E020E01097C7
:1021A000A1F420813181820F931F2091AB033091E4
:1021B000AC032817390709F061C0F093AC03E09332
:1021C000AB03DF91CF910895EA01CE17DF07E8F561
:1021D0004A815B819E0141155105B1F7E901FB83FD
:1021E000EA8349915991C40FD51FEC17FD0761F49B
:1021F000808191810296840F951FE90199838883DC
:10220000828193819B838A83F0E0E0E012968D9136
:102210009C9113970097B9F52D913C911197CD01A1
:102220000296820F931F2091AB033091AC032817C5
:10223000390739F6309751F51092AE031092AD037D
:10224000B093AC03A093AB03BCCFD383C2834081D4
:102250005181840F951FC817D90761F44E5F5F4FF6
:1022600088819981480F591F518340838A819B81BE
:10227000938382832115310509F0B0CFF093AE032B
:10228000E093AD039ECFFD01DC01C0CF138212822B
:10229000D7CFB0E0A0E0EFE4F1E10C94A70F8C0100
:1022A000009751F4CB010E9424108C01C801CDB7D6
:1022B000DEB7E0E10C94C30FFC01E60FF71F9C01B1
:1022C00022503109E217F30708F49DC0D901CD91DE
:1022D000DC911197C617D70798F0C530D10530F3B8
:1022E000CE0104978617970708F3C61BD70B2297D2
:1022F000C193D1936D937C93CF010E94C010D6CF30
:102300005B01AC1ABD0A4C018C0E9D1EA091AD0361
:10231000B091AE03512C412CF12CE12C109731F5EA
:102320008091AB039091AC038815990509F05CC0CE
:102330004616570608F058C080910001909101019F
:10234000009741F48DB79EB740910401509105016B
:10235000841B950BE817F90708F055C0F093AC0300
:10236000E093AB03F90171836083A0CF8D919C91C1
:10237000119712966C90129713967C901397A8154C
:10238000B90559F56C0142E0C40ED11CCA14DB0436
:1023900020F1AC014A195B09DA011296159780F019
:1023A0006282738251834083D9016D937C93E114DF
:1023B000F10471F0D7011396FC93EE93129776CF48
:1023C00022968C0F9D1FF90191838083F301EFCF3B
:1023D000F093AE03E093AD0369CF4816590608F4B5
:1023E0002C017D01D3019ACFCB010E9424107C01E6
:1023F000009749F0AE01B8010E940612C8010E9480
:10240000C010870153CF10E000E050CFFB01DC018A
:1024100002C001900D9241505040D8F70895FB0141
:10242000DC018D91019080190110D9F3990B089569
:10243000FB01DC0101900D920020E1F7089510E00E
:10244000C2E6D0E004C0FE010E9419102196C336F6
:08245000D107C9F7F894FFCF92
:102458000000AF038000000040001400540000009A
:1024680000000D01E0007804B600D900C600B700EE
:102478000000000023038302B0027003E102BF02E0
:10248800D30200000000BD058302780477040D0A1A
:10249800004B686F6920646F6E672E2E2E00523ACB
:1024A8000020473A0020423A007265640050686193
:1024B80074206869656E3A20444F00506861742042
:1024C8006869656E3A2052454400677265656E001A
:1024D80050686174206869656E3A2058414E4820FA
:1024E8004C410050686174206869656E3A20475213
:1024F80045454E00626C75650050686174206869D6
:10250800656E3A2058414E482044554F4E4700507A
:10251800686174206869656E3A20424C55450075BB
:102528006E6B6E6F776E004B686F6E6720786163B5
:102538002064696E6800556E6B6E6F776E20436F0E
:0A2548006C6F720020473A2000007B
:00000001FF
